S01500006275696C642F445254532D4C61622E73313927
S3152000000000BFDFF814D006F01AFF00F0D1FA06F090
S3152000001028BFFEE700BF000000C0012080B584B0E5
S3152000002002AF786039607B689B69002B1AD17B68A8
S31520000030DB6A002B11D17B680122DA620023009350
S315200000401B4B7A68002142F2107007F093FB7B6805
S315200000500C33184607F00CFD14E00021154800F07B
S31520000060C9FF0FE07B689B69012B0BD17B68DB6A9C
S31520000070002B07D1002300930F4B7A680021002024
S3152000008007F078FB7B689B69002B0CBF01230023BC
S31520000090DBB21A467B689A617B689B691A460749D8
S315200000A0074807F005FC00BF0837BD4680BD00BFE6
S315200000B0D101002024950020C5000020B56A00202B
S315200000C0C09E002080B584B002AF786039607B681E
S315200000D00C33184607F0EAFC03462F4A13602E4BD2
S315200000E01B682E4A82FB03125213DB17D31A1946BA
S315200000F02B4800F07FFF284B1A68284B83FB0213FE
S315200001005913D317CB1A274901FB03F3D31A264ACF
S3152000011082FB03125211DB17D31A1946234800F02B
S3152000012069FF7B685B69012B20D11B4B1B681B4A2F
S3152000013082FB03125213DB17D31A19461C4800F010
S3152000014059FF154B1B681B4A934219DD78230093F0
S31520000150194B1A4A0021002007F00CFB7821184879
S3152000016000F048FF7B6800229A6209E00A4B1B6870
S31520000170144A934204DC144B1B68184607F01EFCF5
S315200001807B6800225A610021104800F033FF00BF2F
S315200001900837BD4680BD00BF24A1002089B5F814CC
S315200001A038950020A08601001F85EB514895002038
S315200001B0509500203F0D030039080020009A0020AA
S315200001C06C9500209F86010028A1002084950020A0
S315200001D080B58CB002AF7860396000228A498B489E
S315200001E007F066FB78617B680022DA627B69012B67
S315200001F000F0068100230093854B7A68002185480C
S3152000020007F0B8FA0346844A13607B689B6A013379
S315200002101946824800F0EEFE7B689B6A002B0AD1C5
S315200002207B680833184607F023FC7B689B6A5A1CB8
S315200002307B689A62E5E07B680833184607F036FC4F
S3152000024038617B680833184607F012FC7B689B6A86
S31520000250013B7A6806339B0013443A695A603B692E
S315200002606F4A82FB03125213DB17D31A19466D48C5
S3152000027000F0C0FE3A696A4B83FB02135913D31769
S31520000280CB1A694901FB03F3D31A684A82FB03128E
S315200002905211DB17D31A1946654800F0ABFE7B686E
S315200002A09B6A5A1C7B689A627B689B6A042B40F087
S315200002B0A88000237B6200233B6222E00123FB61AE
S315200002C019E07A683B6A06339B0013445A687968BA
S315200002D0FB6906339B000B445B68D31A002BB8BF1F
S315200002E05B42BB60BA687B6A9A4201DDBB687B626F
S315200002F0FB690133FB61FB69022BE2DD3B6A0133BB
S315200003003B623B6A012BD9DD7A6A454B83FB02139C
S315200003105913D317CB1A444901FB03F3D31A434A83
S3152000032082FB03125211DB17D31A1946414800F0FB
S3152000033061FE7B6A03F5C3339F333F4A934257D806
S315200003407A6A374B83FB02135913D317CB1A3649D4
S3152000035001FB03F3D31A42F20F72934248DC7B6807
S31520000360DA697B681B6A1A447B685B6A1344334AE2
S3152000037082FB0312DB17D31AFB60FB68284A82FB39
S3152000038003125213DB17D31A4FF47A7202FB03F1CE
S31520000390FA68234B83FB02035813D317C31A224848
S315200003A000FB03F3D31A214A82FB03025211DB1707
S315200003B0D31A0B444EF6602292FBF3F3BB61BB6962
S315200003C01D2B01DC1E23BB61BB69B3F5967F02DDC5
S315200003D04FF49673BB61B969194800F00BFEBB69EF
S315200003E00093184B184A0021002007F0C3F903E0B8
S315200003F00021164800F0FEFD7B6800229A6200E08C
S3152000040000BF2837BD4680BD556A0020C09E00200B
S3152000041051040020905F010028A10020A095002013
S3152000042089B5F814B8950020A08601001F85EB51E8
S3152000043048950020D49500203E0D0300565555556D
S315200004400096002039080020009A002028960020D7
S3152000045080B582B000AF786039600021044800F092
S31520000460C9FD7B6801225A6100BF0837BD4680BDA1
S315200004704096002080B586B000AF7860396007F1DD
S3152000048008031A461A491B4807F012FA1A4B1A464D
S315200004901A491B4807F00CFA07F1080303331A46DA
S315200004A01649174807F004FA164B1A4613491448FA
S315200004B007F0FEF97B681B69002B15D000237B61B2
S315200004C00CE007F10B027B6913441B781A460E4990
S315200004D00E4807F0EDF97B6901337B61BB7A1A463A
S315200004E07B699342EDDB00E000BF1837BD4680BD37
S315200004F095650020489E00205896002037680020E9
S31520000500289A00206C9600203D0E002008A100208D
S3152000051080B584B002AF786039603B680093054BA4
S31520000520054A0021002007F025F900BF0837BD46FF
S3152000053080BD00BFB10A002008A1002080B584B08C
S3152000054002AF7860396000220F49104807F0B0F9F1
S3152000055000220F490F4807F0ABF900220E490F4839
S3152000056007F0A6F90E4B1A460E490A4807F0A0F9DD
S31520000570002300930C4B0D4A0021002007F0FAF8C7
S3152000058000BF0837BD4680BD4D630020489E002031
S3152000059091670020289A0020256A0020C09E00200E
S315200005A07096002037680020AD060020009A0020B3
S315200005B080B500AF00220B490B4807F06DFB0122E6
S315200005C00A490B4807F068FB02220A490A4807F045
S315200005D063FB002209490A4807F0C4FB002318469A
S315200005E080BD00BFC3680020289A00200D6400202B
S315200005F0489E0020F56A0020C09E00203D05002070
S31520000600D8A000200000000080B584B002AF78603A
S3152000061039607B681B69002B04D000210E4800F04E
S31520000620E9FC16E07B6801221A61002300930B4B3C
S315200006300B4A0021002007F09DF800230093094B68
S315200006407A680021002007F095F80021786800F0EC
S3152000065001F90837BD4680BD78960020F5080020B0
S31520000660DC990020AD06002080B584B002AF78600A
S3152000067039607B6800221A6100230093084B094ADF
S315200006800021002007F076F800230093064B054A48
S315200006900021002007F06EF800BF0837BD4680BD58
S315200006A0D1080020DC99002021090020B0B588B0AF
S315200006B002AF786039607B681B69002B00F08F8061
S315200006C03B681F2B01DD00233B604B4A3B6852F8F9
S315200006D0233003F10A027B689B681344474A52F889
S315200006E023303B61464A3B6813441B78632B0ED06C
S315200006F0632B10DC612B02D0622B04D00BE04FF071
S315200007007E537B6107E04FF080437B6103E04FF02F
S315200007107C537B6100BF7B68DB68184607F0D0FD01
S3152000072002460B4630A1D1E9000107F05DFF0246E3
S315200007300B4614461D46786907F0D4FD02460B4643
S315200007402046294607F026FE02460B461046194645
S3152000075008F032F80346FB603A692A492A4807F02E
S31520000760A7F8FB68323B642202FB03F0FB68193BC7
S31520000770642202FB03F100230093244B224A06F055
S31520000780F9FFF86807F09CFD19A3D3E9002307F0C9
S3152000079049FC02460B46104619464FF000021C4BF8
S315200007A007F0F8FD02460B461046194608F004F8F5
S315200007B0FB68642202FB03F100230093154B124AC7
S315200007C006F0D8FFFB68642202FB03F03B68013386
S315200007D00093114B7A68002106F0CCFF00E000BFA1
S315200007E01837BD46B0BD00BF00000000004CED40EC
S315200007F09A9999999999B93FD49E0020549F00209F
S31520000800B89F0020950A0020DC990020110A0020BC
S31520000810000059402D0A0020AD06002080B483B088
S3152000082000AF786039607B683A689A6000BF0C3701
S31520000830BD465DF8047B704780B483B000AF786016
S3152000084039607B683A68DA6000BF0C37BD465DF8D0
S31520000850047B704780B586B002AF786039607B68CC
S315200008601B69002B05D101221549164807F020F8EF
S3152000087022E000221249134807F01AF87B68DB6849
S315200008804EF6602292FBF3F3642202FB03F3FB6035
S31520000890FB68DA0F13445B101846002300930A4BBB
S315200008A07A68002106F066FF00230093074B7A68DA
S315200008B00021F86806F05EFF1037BD4680BD00BFF8
S315200008C0756A0020C09E0020D1080020550800200F
S315200008D080B582B000AF78603960012203490448B0
S315200008E006F0E6FF00BF0837BD4680BD756A0020CA
S315200008F0C09E002080B584B002AF786039607B68E6
S3152000090001221A620C230093044B7A6800210020EE
S3152000091006F030FF00BF0837BD4680BD3D090020E8
S3152000092080B483B000AF786039607B6800221A6299
S3152000093000BF0C37BD465DF8047B704780B584B098
S3152000094002AF786039607B681B6A002B23D0144A7B
S315200009503B6813603B68002B0AD17B681B69002B20
S3152000096006D17B68DB68002B02D17B689B6800E0A0
S3152000097000233B607B685B690A4A82FB0312921064
S31520000980DB17D01A3B680093074B7A684CF250313C
S3152000099006F0F0FE00E000BF0837BD4680BD00BF70
S315200009A01C740040676666663D09002080B483B0EB
S315200009B000AF786039607B683A68DA6100BF0C372F
S315200009C0BD465DF8047B704780B582B000AF786085
S315200009D039607B68DB68002B0CBF01230023DBB268
S315200009E01A467B68DA607B68DB68012B04D100211C
S315200009F0054800F0FFFA03E00021044800F0FAFA67
S31520000A0000BF0837BD4680BD949600209C960020E6
S31520000A1080B483B000AF786039607B6801221A61A8
S31520000A2000BF0C37BD465DF8047B704780B483B0A9
S31520000A3000AF786039607B6800221A6100BF0C37EE
S31520000A40BD465DF8047B704780B582B000AF786004
S31520000A5039607B689A683B681344002B05DB7B680A
S31520000A609A683B681344142B08DD7B689A683B68B8
S31520000A7013441946064800F0BDFA05E07B689A68DB
S31520000A803B681A447B689A600837BD4680BD00BF24
S31520000A90A896002080B483B000AF786039607B6868
S31520000AA03A685A6100BF0C37BD465DF8047B704733
S31520000AB080B584B002AF786039603B68DBB2643BB6
S31520000AC0102B00F29E8101A252F823F0250D002062
S31520000AD0030E0020030E0020030E0020030E00202C
S31520000AE0F30C0020030E0020490B0020030E0020EB
S31520000AF0C10C0020030E0020110B0020590D0020F0
S31520000B00030E0020030E0020D10D0020050C00202E
S31520000B109E4B1B69002B0CBF01230023DBB21A4618
S31520000B209A4B1A61994B1B69002B03D100219848D7
S31520000B3000F060FA954B1B69012B40F06E81002175
S31520000B40944800F057FA68E17B689B697A681344F9
S31520000B5000221A727B680833184607F0A9FE03465E
S31520000B608D4A13608C4B1B686FF004029342B8BF0A
S31520000B701346052BA8BF0523874A1360864B1B689F
S31520000B801946864800F036FA804B1B69002B08D19F
S31520000B90814B1B680093824B824A0021002006F07D
S31520000BA0E9FD7B689B69DBB20133DAB27E4B9A7032
S31520000BB07E4B00221A600FE07C4B1A687B4B1B6829
S31520000BC079680A44117A784A13440A46DA70774BD0
S31520000BD01B680133754A13607B689A69734B1B68DF
S31520000BE09A42E9DC714B1B686F4A13446B22DA7018
S31520000BF07B6800229A616C4B1A466D496D4806F057
S31520000C0057FE0BE17B689B697A68134400221A72AF
S31520000C107B680833184607F04BFE03465E4A13608E
S31520000C205D4B1B681E2BB8BF1E23B3F5967FA8BF4E
S31520000C304FF49673584A1360574B1B6819465E4803
S31520000C4000F0D8F9514B1B69002B08D1524B1B6879
S31520000C5000935A4B534A0021002006F08BFD7B68F7
S31520000C609B69DBB20133DAB24F4B9A704F4B0022AD
S31520000C701A600FE04D4B1A684C4B1B6879680A4482
S31520000C80117A494A13440A46DA70484B1B680133E5
S31520000C90464A13607B689A69444B1B689A42E9DC92
S31520000CA0424B1B68404A13447422DA707B68002248
S31520000CB09A613D4B1A463E493E4806F0F9FDADE0A5
S31520000CC0324B1B69002B07D1002300933C4B3D4A36
S31520000CD00021002006F04EFD334B01229A70324B44
S31520000CE06D22DA70304B1A463149324806F0E0FD63
S31520000CF094E0264B1B69002B07D101230093324B2E
S31520000D00304A0021002006F035FD274B01229A703B
S31520000D10254B6922DA70244B1A462549254806F0C8
S31520000D20C7FD7BE0194B1B69002B08D14FF0FF3321
S31520000D300093254B234A0021002006F01BFD1A4B69
S31520000D4001229A70184B6422DA70174B1A461849FA
S31520000D50184806F0ADFD61E00C4B1B69002B07D14E
S31520000D6000230093194B0F4A0021002006F002FDB4
S31520000D700D4B01229A700C4B7022DA700A4B1A46E0
S31520000D800B490C4806F094FD48E000BFD8A000208F
S31520000D90C4960020E49600202CA100200497002071
S31520000DA01D080020009A002034A1002030A1002038
S31520000DB05F660020489E00201097002039080020FA
S31520000DC0C9090020DC990020490A002009060020D4
S31520000DD0144B1B69002B07D100230093124B134A97
S31520000DE00021002006F0C6FC114B01229A70104B00
S31520000DF07322DA700E4B1A460E490F4806F058FD3C
S31520000E000CE07B689B69591C7A6891613A68D1B27B
S31520000E107A6813440A461A7200E000BF00BF0837FA
S31520000E20BD4680BDD8A0002069060020009A00207B
S31520000E3034A100205F660020489E002080B584B043
S31520000E4002AF786039603B68DBB2643B102B00F25E
S31520000E50AB8001A252F823F0710F0020A90F0020C9
S31520000E60A90F0020A90F0020A90F00205F0F002046
S31520000E70A90F00209D0E0020A90F00204D0F002055
S31520000E80A90F0020A90F0020850F0020A90F002000
S31520000E90A90F0020970F0020F70E00207B689B6982
S31520000EA07A68134400221A727B680833184607F0C2
S31520000EB0FFFC0346444A13607B6800229A61424B3A
S31520000EC01B686FF004029342B8BF1346052BA8BFD8
S31520000ED005233D4A13603C4B1B6819463B4800F0EE
S31520000EE089F8394B1B680093394B3A4A0021002078
S31520000EF006F040FC64E07B689B697A681344002214
S31520000F001A727B680833184607F0D2FC03462E4A2D
S31520000F1013607B6800229A612B4B1B683C2BB8BF61
S31520000F203C23F02BA8BFF023274A1360264B1B68CF
S31520000F301946294800F05EF8234B1B680093274B7F
S31520000F40244A0021002006F015FC39E000230093F6
S31520000F50234B244A0021002006F00CFC30E001231C
S31520000F600093214B1F4A0021002006F003FC27E0B6
S31520000F704FF0FF3300931C4B1A4A0021002006F045
S31520000F80F9FB1DE000230093184B124A0021002094
S31520000F9006F0F0FB14E000230093154B0D4A0021C8
S31520000FA0002006F0E7FB0BE07B689B69591C7A68FA
S31520000FB091613A68D1B27A6813440A461A7200BF20
S31520000FC000BF0837BD4680BD2CA100200497002015
S31520000FD01D080020009A00202897002039080020AC
S31520000FE0C9090020DC990020490A002009060020B2
S31520000FF06906002080B5A2B000AF7860396007F19D
S3152000100008003B687A68802107F01CFD07F1080379
S315200010101A460449044806F04BFC00BF8837BD46F3
S3152000102080BD00BF37680020289A002080B485B094
S3152000103000AF786039607B681B68FB603B681B6883
S31520001040BB60FA68BB689A42CCBF01230023DBB29F
S315200010501946FA68BB689A42B4BF01230023DBB263
S31520001060CB1A18461437BD465DF8047B704780B40A
S3152000107087B000AFF860B9607A603B6000237B617F
S315200010800EE07B699B00BA68134419687B699B0054
S31520001090FA6813443A680A441A607B6901337B6113
S315200010A07A697B689A42ECDD00BF00BF1C37BD46DB
S315200010B05DF8047B704780B485B000AF78603960F6
S315200010C07B681B68FB600023BB6010E0BB689B004D
S315200010D07A6813441B68FA689A4205DABB689B0053
S315200010E07A6813441B68FB60BB680133BB60BA682F
S315200010F03B689A42EADDFB6818461437BD465DF820
S31520001100047B704780B485B000AF786039607B6817
S315200011101B68FB600023BB6010E0BB689B007A68FD
S3152000112013441B68FA689A4205DDBB689B007A68FF
S3152000113013441B68FB60BB680133BB60BA683B681D
S315200011409A42EADDFB6818461437BD465DF8047BF3
S31520001150704700BF314900E03149EFF3088020EDA8
S31520001160108A7246EFF3118320E9FC0F2D4FD7F832
S315200011700080C8F800001EE0084605F0C1FE2A4897
S3152000118005F0BEFE294805F0BBFED8F8040005F0A0
S3152000119003FF274805F0B4FED8F8000005F0CDFE81
S315200011A0244805F0ADFED8F80000006805F0C5FE1D
S315200011B01D4805F0A5FEDFF88080D8F80080C7F826
S315200011C0008018E01D4805F09BFED8F8040005F0C5
S315200011D0E3FE1B4805F094FED8F8000005F0ADFEAE
S315200011E0144805F08DFED8F80000006805F0A5FE2D
S315200011F00D4805F085FE134A536843F0006353609B
S3152000120000BFD8F80000B0E8FC0F83F3118896469B
S31520001210B0EC108A80F3088870470000E09F002019
S31520001220F19F002084A0002061A0002012A00020B1
S315200012302AA0002032A00020942401203BA00020D8
S3152000124050A0002000ED00E080B582B000AF7860AD
S315200012507B680E4A93420AD101214FF0007002F0BA
S3152000126045FB00214FF0007002F040FB09E0012110
S315200012704FF0806002F03AFB00214FF0806002F0D0
S3152000128035FB00BF0837BD4680BD00BF0064004067
S3152000129080B485B000AF786039600023FB730023EB
S315200012A0BB607B681B6823F002027B681A607B6840
S315200012B01B6843F001027B681A6002E0BB680133B9
S315200012C0BB607B685B6803F00103012B04D0BB681D
S315200012D04FF6FF729342F1D17B685B6803F00103FE
S315200012E0012B02D00023FB739CE03B689B79012BEA
S315200012F006D17B681B6843F080027B681A6005E094
S315200013007B681B6823F080027B681A603B68DB7968
S31520001310012B06D17B681B6843F040027B681A606C
S3152000132005E07B681B6823F040027B681A603B68F7
S315200013301B7A012B06D17B681B6843F020027B6851
S315200013401A6005E07B681B6823F020027B681A6020
S315200013503B685B7A012B06D17B681B6843F0100241
S315200013607B681A6005E07B681B6823F010027B68A7
S315200013701A603B689B7A012B06D17B681B6843F079
S3152000138008027B681A6005E07B681B6823F0080268
S315200013907B681A603B68DB7A012B06D17B681B6869
S315200013A043F004027B681A6005E07B681B6823F023
S315200013B004027B681A603B689B789A073B68DB7857
S315200013C01B061A433B681B791B041A433B685B794F
S315200013D01B051A433B681B88013B1A437B68DA616D
S315200013E07B681B6823F001027B681A600023BB60C0
S315200013F002E0BB680133BB607B685B6803F00103D6
S31520001400012B04D1BB684FF6FF729342F1D17B6862
S315200014105B6803F00103012B02D10023FB7301E07B
S315200014200123FB73FB7B18461437BD465DF8047B0E
S31520001430704790B484B000AF78600023FB607B686F
S315200014409B7A1A4601239340FB605A4BD3F800320D
S31520001450584A43F00103C2F80032564BD3F81C22F7
S31520001460FB68DB4353491340C1F81C327B681B7B66
S31520001470002B29D14F4BD3F80C22FB68DB434D4977
S315200014801340C1F80C327B68DB881B047A685288CB
S31520001490144648497A68927A104643EA040200F1D3
S315200014A0480341F833207B689B881B047A6812889E
S315200014B0144640497A68927A104643EA040200F1BB
S315200014C04803DB000B445A607B681B7B012B28D129
S315200014D0384BD3F80C223749FB681343C1F80C323A
S315200014E07B681B881B047A685288144631497A68BF
S315200014F0927A104643EA040200F1480341F8332069
S315200015007B689B881B047A68D288144629497A68A6
S31520001510927A104643EA040200F14803DB000B44AA
S315200015205A607B68DB7A002B09D1224BD3F8042240
S31520001530FB68DB431F491340C1F8043207E01D4B0B
S31520001540D3F804221B49FB681343C1F804327B6895
S315200015501B89002B08D1174BD3F81422FB68DB43D9
S3152000156014491340C1F814327B681B89012B07D11B
S31520001570104BD3F814220F49FB681343C1F81432D9
S315200015807B685B7B012B07D10A4BD3F81C220949C8
S31520001590FB681343C1F81C32064BD3F80032054AC8
S315200015A023F00103C2F8003200BF1037BD4690BCBD
S315200015B0704700BF0064004080B483B000AF7860FD
S315200015C07B6800229A717B680022DA717B68002290
S315200015D01A727B6800225A727B6800229A727B6894
S315200015E00022DA727B6800229A707B680022DA7009
S315200015F07B6803221A717B6802225A717B6801225A
S315200016001A8000BF0C37BD465DF8047B704780B456
S3152000161083B000AF0346FB71144BD3F80032134A54
S3152000162043F00103C2F80032104BD3F800320F4AC0
S3152000163023F47C5323F00E03C2F800320B4BD3F86D
S315200016400022FB791B0209491343C1F80032074BDC
S31520001650D3F80032054A23F00103C2F8003200BF56
S315200016600C37BD465DF8047B704700BF0064004020
S3152000167080B483B000AF78600B46FB70FB78002BFC
S3152000168006D07B681B6843F480327B681A6005E0CD
S315200016907B681B6823F480327B681A6000BF0C3796
S315200016A0BD465DF8047B704780B483B000AF786098
S315200016B00B46FB70FB78002B1ED07B681B6843F023
S315200016C080027B681A607B68D3F8843143F4807289
S315200016D07B68C3F884217B68D3F8943143F4807205
S315200016E07B68C3F894217B68D3F8A43143F48072D5
S315200016F07B68C3F8A4211DE07B681B6823F0800269
S315200017007B681A607B68D3F8843123F480727B6807
S31520001710C3F884217B68D3F8943123F480727B68E4
S31520001720C3F894217B68D3F8A43123F480727B68B4
S31520001730C3F8A42100BF0C37BD465DF8047B704773
S3152000174080B485B000AF786039600023FB737B6876
S315200017509B6803F08063B3F1806F02D10023FB7393
S3152000176015E07B689B6803F00063B3F1006F02D13C
S315200017700123FB730BE07B689B6803F08053B3F176
S31520001780805F02D10223FB7301E00423FB73FB7B02
S31520001790042B00F09F80FB7B7A6818331B011344CF
S315200017A01A68FB7B02F00102796818331B010B448F
S315200017B01A603B681B7A002B13D1FB7B7A6818339F
S315200017C01B01134419683B681B685B053A68527A0B
S315200017D01A43FB7B0A43796818331B010B441A60B2
S315200017E015E0FB7B7A6818331B01134419683B68A4
S315200017F05B68DB003A68127A13433A68527A1A43D6
S31520001800FB7B0A43796818331B010B441A603B683B
S315200018109B7A03F00F03DAB23B689A72FB7B7A68F5
S3152000182018331B01134404331A68FB7B22F00F0282
S31520001830796818331B010B4404331A60FB7B7A68E2
S3152000184018331B01134404331A683B689B7A1946E4
S31520001850FB7B0A43796818331B010B4404331A6057
S315200018603B689B7B1A063B685B7B1B041A433B68E1
S315200018701B7B1B021A433B68DB7A1946FB7B0A4318
S3152000188079681B010B4403F5C4731A603B689B7C83
S315200018901A063B685B7C1B041A433B681B7C1B02B5
S315200018A01A433B68DB7B1946FB7B0A4379681B019D
S315200018B00B4403F5C6731A60FB7B7A6818331B0149
S315200018C013441A68FB7B42F00102796818331B0126
S315200018D00B441A60FB7B18461437BD465DF8047B23
S315200018E0704780B485B000AF78600B46FB7000234C
S315200018F0FB60FB78022B12D0022B16DC002B02D0C9
S31520001900012B06D011E07B689A68314B1340FB60AF
S315200019100EE07B689A682F4B1340FB6008E07B68DB
S315200019209A682D4B1340FB6002E00023FB6000BF4A
S31520001930FB68294A93423DD0FB68274A93423CD80C
S31520001940FB68264A93422CD0FB68244A934234D81B
S31520001950FB68204A93422AD0FB681E4A93422CD821
S31520001960FB681F4A934219D0FB681D4A934224D82C
S31520001970FB68174A934217D0FB68154A93421CD836
S31520001980FB68002B04D0FB68164A934203D014E070
S315200019900223FB6014E00023FB6011E00023FB60C0
S315200019A00EE00023FB600BE00123FB6008E001232F
S315200019B0FB6005E00123FB6002E00023FB6000BF23
S315200019C0FB68DBB218461437BD465DF8047B7047CA
S315200019D003000004000300080000031000000110AB
S315200019E0000100080100000480B483B000AF7860D5
S315200019F00B46FB70FB78022B14D0022B19DC002B34
S31520001A0002D0012B07D014E07B689B6843F080024C
S31520001A107B689A600EE07B689B6843F400427B6893
S31520001A209A6007E07B689B6843F400027B689A60B3
S31520001A3000E000BF00BF0C37BD465DF8047B704751
S31520001A4080B485B000AFF8600B467A60FB72FB7AF3
S31520001A50FA681B331B0113441B68DBB203F0040333
S31520001A60DAB27B681A727B681B7A002B0BD1FB7A61
S31520001A70FA681B331B0113441B685B0DC3F30A0270
S31520001A807B681A600AE0FB7AFA681B331B01134451
S31520001A901B68DB0823F060427B685A60FB7AFA6891
S31520001AA01B331B0113441B68DBB203F00203DAB2BB
S31520001AB07B685A72FB7AFA681B331B011344043382
S31520001AC01B68DBB203F00F03DAB27B689A72FB7AEB
S31520001AD0FA681B331B01134404331B681B0ADAB252
S31520001AE07B68DA74FB7AFA681B01134403F5DC730E
S31520001AF01B68DAB27B68DA72FB7AFA681B01134438
S31520001B0003F5DC731B681B0ADAB27B681A73FB7A4F
S31520001B10FA681B01134403F5DC731B681B0CDAB24D
S31520001B207B685A73FB7AFA681B01134403F5DC734E
S31520001B301B681B0EDAB27B689A73FB7AFA681B0164
S31520001B40134403F5DE731B68DAB27B68DA73FB7A1B
S31520001B50FA681B01134403F5DE731B681B0ADAB20D
S31520001B607B681A74FB7AFA681B01134403F5DE734B
S31520001B701B681B0CDAB27B685A74FB7AFA681B0165
S31520001B80134403F5DE731B681B0EDAB27B689A7466
S31520001B90FB7A002B06D1FB68DB6843F02002FB684A
S31520001BA0DA6005E0FB681B6943F02002FB681A61D6
S31520001BB000BF1437BD465DF8047B704780B483B000
S31520001BC000AF78600B46FB70FB78002B06D17B6854
S31520001BD0DB6843F020027B68DA6005E07B681B69DE
S31520001BE043F020027B681A6100BF0C37BD465DF8C2
S31520001BF0047B704780B485B000AF78600B46FB70DD
S31520001C000023FB73FB78002B06D17B68DB68DBB2F5
S31520001C1003F00303FB730BE0FB78012B06D17B68F3
S31520001C201B69DBB203F00303FB7301E00023FB73A4
S31520001C30FB7B18461437BD465DF8047B704780B49D
S31520001C4085B000AF78600B46FB700023FB734FF620
S31520001C50FF73BB60FB78002B20D17B681B6823F0C9
S31520001C60030343F001027B681A6002E0BB68013B74
S31520001C70BB607B685B6803F00303012B02D0BB6863
S31520001C80002BF3D17B685B6803F00303012B02D0A2
S31520001C900023FB734AE00123FB7347E0FB78012B0B
S31520001CA01ED17B681B6823F003027B681A6002E062
S31520001CB0BB68013BBB607B685B6803F00303002BBA
S31520001CC002D0BB68002BF3D17B685B6803F003036B
S31520001CD0002B02D00023FB7328E00123FB7325E0B1
S31520001CE0FB78022B20D17B681B6823F0030343F08B
S31520001CF002027B681A6002E0BB68013BBB607B681E
S31520001D005B6803F00303022B02D0BB68002BF3D1E0
S31520001D107B685B6803F00303022B02D00023FB736E
S31520001D2004E00123FB7301E00023FB73FB7B1846D1
S31520001D301437BD465DF8047B704780B485B000AF8C
S31520001D4078600023FB737B681B6823F0030343F052
S31520001D5002027B681A607B685B6803F00303022B30
S31520001D6001D10123FB73FB7B18461437BD465DF872
S31520001D70047B704780B485B000AF78604FF6FF7360
S31520001D80FB600023FB727B681B6823F002027B68E2
S31520001D901A6002E0FB68013BFB607B685B6803F02E
S31520001DA00203022B02D1FB68002BF3D17B685B6810
S31520001DB003F00203022B01D00123FB72FB7A1846A3
S31520001DC01437BD465DF8047B704780B485B000AFFC
S31520001DD078600023FB737B689B69DBB203F070039A
S31520001DE0FB73FB7B18461437BD465DF8047B7047B2
S31520001DF080B485B000AF78600023FB737B689B6955
S31520001E001B0EFB73FB7B18461437BD465DF8047B1F
S31520001E10704780B485B000AF78600023FB737B6881
S31520001E209B691B0CFB73FB7B18461437BD465DF87C
S31520001E30047B704780B485B000AFF860B960134664
S31520001E40FB71FB79002B06D0FB685A69BB681A43E5
S31520001E50FB685A6106E0FB685A69BB68DB431A4097
S31520001E60FB685A6100BF1437BD465DF8047B704796
S31520001E7080B485B000AF786039600023FB733B687F
S31520001E8003F47003002B0DD07B689A693B681340DE
S31520001E90C3F31303002B02D00123FB7348E0002376
S31520001EA0FB7345E03B6803F08073002B0DD07B6805
S31520001EB05A683B681340C3F31303002B02D0012357
S31520001EC0FB7335E00023FB7332E03B6803F00063CD
S31520001ED0002B0DD07B689A683B681340C3F313032D
S31520001EE0002B02D00123FB7322E00023FB731FE0AB
S31520001EF03B6803F00073002B0DD07B68DA683B68E3
S31520001F001340C3F31303002B02D00123FB730FE00E
S31520001F100023FB730CE07B681A693B681340C3F30C
S31520001F201303002B02D00123FB7301E00023FB7374
S31520001F30FB7B18461437BD465DF8047B704780B49A
S31520001F4085B000AF786039600023FB603B68174A94
S31520001F50934203D17B6800229A6121E03B68C3F358
S31520001F601303FB603B6803F00073002B03D07B68F0
S31520001F70FA68DA6014E03B6803F08063002B03D034
S31520001F807B68FA681A610BE03B6803F00063002B5C
S31520001F9003D07B68FA689A6002E07B68FA685A6028
S31520001FA000BF1437BD465DF8047B70477000F030E3
S31520001FB080B584B000AF786039600023FB737B68FE
S31520001FC05A693B681340002B00F01B813B68B3F530
S31520001FD0003F00F0DD803B68B3F5003F00F20E8144
S31520001FE03B68B3F5803F00F0CA803B68B3F5803F7D
S31520001FF000F204813B68B3F5004F00F0F6803B68A1
S31520002000B3F5004F00F2FA803B68B3F5006F00F09D
S31520002010E3803B68B3F5006F00F2F0803B68B3F5D0
S31520002020806F00F0D0803B68B3F5806F00F2E680C9
S315200020303B68B3F5007F00F0BD803B68B3F5007FB9
S3152000204000F2DC803B68B3F5807F00F0AA803B6815
S31520002050B3F5807F00F2D2803B68202B4CD83B68BA
S31520002060002B00F0CB803B68013B1F2B00F2C68083
S3152000207001A252F823F000BF0121002013210020E5
S31520002080FD21002025210020FD210020FD2100200A
S31520002090FD21002037210020FD210020FD210020E8
S315200020A0FD210020FD210020FD210020FD21002012
S315200020B0FD21002049210020FD210020FD210020B6
S315200020C0FD210020FD210020FD210020FD210020F2
S315200020D0FD210020FD210020FD210020FD210020E2
S315200020E0FD210020FD210020FD210020FD210020D2
S315200020F0FD2100205B2100203B68402B36D07DE06F
S315200021007B689B684249184600F060F90346FB73DA
S3152000211079E07B68DB680321184600F057F903460F
S31520002120FB7370E07B68DB680821184600F04EF9E7
S315200021300346FB7367E07B68DB681021184600F0D6
S3152000214045F90346FB735EE07B681B69032118464D
S3152000215000F03CF90346FB7355E07B681B690821B8
S31520002160184600F033F90346FB734CE07B681B6985
S315200021701021184600F02AF90346FB7343E07B68DA
S315200021805B680821184600F021F90346FB733AE004
S315200021907B685B681021184600F018F90346FB732C
S315200021A031E07B689B690121184600F00FF9034650
S315200021B0FB7328E07B689B690221184600F006F92C
S315200021C00346FB731FE07B689B690421184600F0D9
S315200021D0FDF80346FB7316E07B689B697021184661
S315200021E000F0F4F80346FB730DE07B685B6804217E
S315200021F0184600F0EBF80346FB7304E00023FB735C
S3152000220001E00023FB73FB7B18461037BD4680BDDB
S315200022100101010080B483B000AF786039603B686B
S31520002220B3F5003F00F0AA803B68B3F5003F00F20B
S31520002230C3803B68B3F5803F00F09C803B68B3F5D4
S31520002240803F00F2B9803B68B3F5004F00F0AD80C7
S315200022503B68B3F5004F00F2AF803B68B3F5006FE3
S3152000226000F09C803B68B3F5006F00F2A5803B68C8
S31520002270B3F5806F00F08E803B68B3F5806F00F277
S315200022809B803B68B3F5007F00F080803B68B3F508
S31520002290007F00F291803B68B3F5807F72D03B6867
S315200022A0B3F5807F00F288803B68202B4AD83B68B4
S315200022B0002B00F081803B68013B1F2B7CD801A2BC
S315200022C052F823F04D230020B9230020B923002003
S315200022D055230020B9230020B9230020B92300204C
S315200022E05D230020B9230020B9230020B923002034
S315200022F0B9230020B9230020B9230020B9230020C8
S31520002300B9230020B9230020B9230020B9230020B7
S31520002310B9230020B9230020B9230020B9230020A7
S31520002320B9230020B9230020B9230020B923002097
S31520002330B9230020B9230020B9230020B923002087
S31520002340652300203B68402B10D035E07B681E4A71
S315200023509A6032E07B680822DA602EE07B681022E1
S31520002360DA602AE07B6808221A6126E07B68102260
S315200023701A6122E07B6808225A601EE07B681022E0
S315200023805A601AE07B6804225A6016E07B680422B1
S315200023905A6012E07B6804225A600EE07B680022B5
S315200023A09A617B6804225A6007E07B6800229A6162
S315200023B07B6804225A6000E000BF00BF0C37BD4690
S315200023C05DF8047B704700BF0101010080B485B031
S315200023D000AF786039600023FB737A683B6813404E
S315200023E0002B02D00123FB7301E00023FB73FB7B50
S315200023F018461437BD465DF8047B704780B500AF9C
S3152000240001214FF0005001F071FA00214FF00050E9
S3152000241001F06CFA00BF80BD80B485B000AF786053
S3152000242039600023FB600023BB60144B1B68FB60F4
S3152000243040F6FE727B6802FA03F3DB43FA68134028
S31520002440FB603B681A683B685B681A433B689B687D
S315200024501A433B68DB681343BB60BA687B6802FAA1
S3152000246003F3FA681343FB60044AFB68136000BF5A
S315200024701437BD465DF8047B704700BF00740040EA
S3152000248080B483B000AF78607B6800221A607B68D6
S3152000249000225A607B6800229A607B680022DA60FC
S315200024A000BF0C37BD465DF8047B704780B483B00F
S315200024B000AF78600B46FB70FB78002B09D00D4BE4
S315200024C01A6801217B6801FA03F30A4913430B605A
S315200024D009E0084B1A6801217B6801FA03F3DB4304
S315200024E0044913400B6000BF0C37BD465DF8047BE2
S315200024F0704700BF0074004080B483B000AF78609E
S315200025000B46FB70FB78002B0AD00E4B5A687B6873
S315200025101B09012101FA03F30A4913434B600AE020
S31520002520084B5A687B681B09012101FA03F3DB4338
S31520002530044913404B6000BF0C37BD465DF8047B51
S31520002540704700BF0074004080B483B000AF0346DC
S31520002550FB71FB79002B06D0094B5B68084A43F0D8
S315200025600303536005E0064B5B68054A23F003032B
S31520002570536000BF0C37BD465DF8047B704700BF33
S315200025800074004080B485B000AFF860B96013468F
S31520002590FB71FB79002B09D00C4B1A68B968FB68D4
S315200025A001FA03F3094913430B6009E0074B1A6844
S315200025B0B968FB6801FA03F3DB43044913400B6057
S315200025C000BF1437BD465DF8047B70470074004099
S315200025D080B485B000AF78600B467B800023FB601B
S315200025E0084BFB60FA687B6813440833FB60FB6882
S315200025F01A467B88136000BF1437BD465DF8047BFE
S31520002600704700BF0074004080B485B000AF78608A
S315200026100B467B800023FB60084BFB60FA687B68D7
S3152000262013441433FB60FB681A467B88136000BF93
S315200026301437BD465DF8047B704700BF0074004028
S3152000264080B485B000AF78600B467B8013463B8014
S315200026500023FB600023BB607B68082B05D17B88A9
S315200026601A023B881343FB6004E07B881A043B88EC
S315200026701343FB60074BBB607A68BB681344203367
S31520002680BB60BB68FA681A6000BF1437BD465DF8A8
S31520002690047B70470074004080B485B000AF78603A
S315200026A00023FB60084BFB607B689A08FB68134499
S315200026B02C33FB60FB681B689BB218461437BD465B
S315200026C05DF8047B704700BF0074004080B483B07F
S315200026D000AF78600B46FB70FB78002B0AD00E4BC0
S315200026E01A684FF480517B6801FA03F30A491343B1
S315200026F00B600AE0084B1A684FF480517B6801FA98
S3152000270003F3DB43044913400B6000BF0C37BD467F
S315200027105DF8047B704700BF0074004080B485B02C
S3152000272000AFF860B9601346FB71FB79002B09D026
S315200027300C4B1A68B968FB6801FA03F3094913437D
S315200027400B6009E0074B1A68B968FB6801FA03F3C6
S31520002750DB43044913400B6000BF1437BD465DF8C8
S31520002760047B70470074004080B485B000AF786069
S3152000277039600023FB730A4B5A6B39687B6801FA70
S3152000278003F31340002B02D00123FB7301E0002347
S31520002790FB73FB7B18461437BD465DF8047B7047F8
S315200027A00074004080B483B000AF78603960064979
S315200027B03A687B6802FA03F34B6300BF0C37BD46C9
S315200027C05DF8047B704700BF0074004080B485B07C
S315200027D000AF786039600023FB730023BB60104B89
S315200027E01A6839687B6801FA03F31340BB600C4B07
S315200027F05A6B39687B6801FA03F31340002B05D026
S31520002800BB68002B02D00123FB7301E00023FB737E
S31520002810FB7B18461437BD465DF8047B704700BF26
S315200028200074004080B483B000AF786039600649F8
S315200028303A687B6802FA03F34B6300BF0C37BD4648
S315200028405DF8047B704700BF0074004080B400AF81
S31520002850094B00221A60084B00225A60064B0022C0
S315200028609A60054B0022DA60034B044A5A6100BF86
S31520002870BD465DF8047B7047003C0140FFFF7F00AA
S3152000288080B485B000AF78600023FB60344BFB60DA
S315200028907B689B79002B4FD0314B1A687B681B686D
S315200028A0DB432F4913400B602D4B5A687B681B680E
S315200028B0DB432B4913404B607B681B791A46FB6828
S315200028C01344FB60FB6819687B681A68FB680A4337
S315200028D01A60234B9A687B681B68DB4320491340A8
S315200028E08B601F4BDA687B681B68DB431C491340EF
S315200028F0CB607B685B79102B0ED1194B9A687B686D
S315200029001B68174913438B60154BDA687B681B6875
S3152000291013491343CB601DE0114BFB607B685B7949
S315200029201A46FB681344FB60FB6819687B681A68C3
S31520002930FB680A431A600DE07B681B791A46FB6820
S315200029401344FB60FB6819687B681B68DA43FB68E5
S315200029500A401A6000BF1437BD465DF8047B7047F5
S31520002960003C014080B483B000AF78607B680022D1
S315200029701A607B6800221A717B680C225A717B6868
S3152000298000229A7100BF0C37BD465DF8047B704764
S3152000299080B483B000AF7860054B1A6904497B6820
S315200029A013430B6100BF0C37BD465DF8047B7047AF
S315200029B0003C014080B485B000AF78600023FB73F3
S315200029C0084B5A697B681340002B02D00123FB7306
S315200029D001E00023FB73FB7B18461437BD465DF8E8
S315200029E0047B7047003C014080B483B000AF786020
S315200029F0044A7B68536100BF0C37BD465DF8047BF3
S31520002A00704700BF003C014080B485B000AF7860BD
S31520002A100023FB73084B5A697B681340002B02D0B6
S31520002A200123FB7301E00023FB73FB7B184614375D
S31520002A30BD465DF8047B7047003C014080B483B0FE
S31520002A4000AF7860044A7B68536100BF0C37BD46EF
S31520002A505DF8047B704700BF003C014080B582B022
S31520002A6000AF78607B684B4A934208D10121012050
S31520002A7000F0DCFE0021012000F0D8FE86E07B6815
S31520002A80454A934208D10121022000F0CFFE0021C1
S31520002A90022000F0CBFE79E07B68404A934208D1C1
S31520002AA00121042000F0C2FE0021042000F0BEFE19
S31520002AB06CE07B683A4A934208D10121082000F055
S31520002AC0B5FE0021082000F0B1FE5FE07B68354AA4
S31520002AD0934208D10121102000F0A8FE00211020E9
S31520002AE000F0A4FE52E07B682F4A934208D10121D0
S31520002AF0202000F09BFE0021202000F097FE45E0DC
S31520002B007B682A4A934208D10121402000F08EFE9C
S31520002B100021402000F08AFE38E07B68244A934258
S31520002B2008D10121802000F081FE0021802000F0C4
S31520002B307DFE2BE07B681F4A93420AD101214FF488
S31520002B40807000F073FE00214FF4807000F06EFE5E
S31520002B501CE07B68184A93420AD101214FF4007089
S31520002B6000F064FE00214FF4007000F05FFE0DE0DF
S31520002B707B68124A934209D101214FF4806000F00C
S31520002B8055FE00214FF4806000F050FE00BF08374C
S31520002B90BD4680BD000002400004024000080240FD
S31520002BA0000C0240001002400014024000180240AF
S31520002BB0001C02400020024000240240002802405F
S31520002BC080B487B000AF7860396000237B61002332
S31520002BD03B610023FB6000237B6176E001227B6959
S31520002BE002FA03F33B613B681B683A691340FB60BA
S31520002BF0FA683B699A4265D17B681A687B695B00F3
S31520002C00032101FA03F3DB431A407B681A607B68D1
S31520002C101A683B681B7919467B695B0001FA03F346
S31520002C201A437B681A603B681B79012B03D03B68EB
S31520002C301B79022B2ED17B689A687B695B00032166
S31520002C4001FA03F3DB431A407B689A607B689A6833
S31520002C503B685B7919467B695B0001FA03F31A43EB
S31520002C607B689A607B685A687B699BB21946012308
S31520002C708B40DB431A407B685A607B685B683A6806
S31520002C80927911467A6992B201FA02F292B21A4305
S31520002C907B685A607B68DA687B699BB25B0003219C
S31520002CA001FA03F3DB431A407B68DA607B68DA6853
S31520002CB03B68DB7919467B695B0001FA03F31A430B
S31520002CC07B68DA607B6901337B617B690F2B85D951
S31520002CD000BF00BF1C37BD465DF8047B704780B43B
S31520002CE083B000AF78607B684FF6FF721A607B680E
S31520002CF000221A717B6800225A717B6800229A7121
S31520002D007B680022DA7100BF0C37BD465DF8047B74
S31520002D10704780B485B000AF78600B467B804FF457
S31520002D208033FB607A88FB681343FB60FA687B6814
S31520002D30DA617A887B68DA61FA687B68DA617B68AF
S31520002D40DB69FB607B68DB69FB6000BF1437BD462F
S31520002D505DF8047B704780B485B000AF78600B4681
S31520002D607B800023FB737B681A697B881340002BCA
S31520002D7002D00123FB7301E00023FB73FB7B184683
S31520002D801437BD465DF8047B704780B483B000AF2E
S31520002D9078607B681B699BB218460C37BD465DF888
S31520002DA0047B704780B485B000AF78600B467B808B
S31520002DB00023FB737B685A697B881340002B02D063
S31520002DC00123FB7301E00023FB73FB7B18461437BA
S31520002DD0BD465DF8047B704780B483B000AF786051
S31520002DE07B685B699BB218460C37BD465DF8047B51
S31520002DF0704780B483B000AF78600B467B807B68D9
S31520002E007A881A8300BF0C37BD465DF8047B70476D
S31520002E1080B483B000AF78600B467B807B687A886D
S31520002E205A8300BF0C37BD465DF8047B704780B4DB
S31520002E3083B000AF78600B467B8013467B707B782F
S31520002E40002B03D07B687A881A8302E07B687A8815
S31520002E505A8300BF0C37BD465DF8047B704780B4AB
S31520002E6083B000AF78600B467B807A887B685A6196
S31520002E7000BF0C37BD465DF8047B704780B483B035
S31520002E8000AF78600B467B807B685A697B885A4006
S31520002E907B685A6100BF0C37BD465DF8047B7047DE
S31520002EA080B485B000AF78600B467B8013467B707C
S31520002EB00023FB600023BB607A787B8803F007033E
S31520002EC09B0002FA03F3FB607B88DB089BB21A4661
S31520002ED07B68083253F822207B8803F007039B0087
S31520002EE00F2101FA03F3DB437988C90889B2084622
S31520002EF002EA03017B6800F1080243F822107B886E
S31520002F00DB089BB21A467B68083253F82230FA68EF
S31520002F101343BB607B88DB089BB21A467B6808326A
S31520002F20B96843F8221000BF1437BD465DF8047B0C
S31520002F30704700BF80B400AF164B1B68154A43F09C
S31520002F4001031360134B00229A60124B1B68114A2F
S31520002F5023F0A85323F4102313600E4B0E4A5A6015
S31520002F600C4B0E4AC3F884200A4B0D4AC3F888201E
S31520002F70084B1B68074A23F480231360054B002265
S31520002F80DA60044B0022C3F88C2000BFBD465DF8F2
S31520002F90047B7047003802401030002400300020A7
S31520002FA00030002480B483B000AF0346FB71064B8B
S31520002FB000221A70044AFB79137000BF0C37BD46F5
S31520002FC05DF8047B704700BF0238024080B582B0AE
S31520002FD000AF00233B600023FB710023BB7131202F
S31520002FE000F08AFD0346BB713B6801333B603B68BA
S31520002FF0B3F5A04F02D0BB79002BF0D0312000F0E2
S315200030007BFD0346002B02D00123FB7101E0002348
S31520003010FB71FB7918460837BD4680BD80B485B064
S3152000302000AF0346FB710023FB600A4B1B68FB6065
S31520003030FB6823F0F803FB60FB79DB00FA68134397
S31520003040FB60044AFB68136000BF1437BD465DF879
S31520003050047B70470038024080B483B000AF03463B
S31520003060FB71044AFB79136000BF0C37BD465DF83F
S31520003070047B70470000474280B483B000AF03460C
S31520003080FB710D4B00221A700B4B00221A70FB7934
S31520003090012B02D0042B04D007E0074B01221A7023
S315200030A003E0054B05221A7000BF00BF0C37BD4652
S315200030B05DF8047B704700BF7038024080B483B04F
S315200030C000AF0346FB71044AFB79136000BF0C373F
S315200030D0BD465DF8047B7047800E474280B485B0BC
S315200030E000AFF860B9607A603B607B689A01BB6884
S315200030F01A433B685B08013B1B041A43FB681A43CF
S31520003100BB691B06044913434B6000BF1437BD46F9
S315200031105DF8047B704700BF0038024080B483B05E
S3152000312000AF0346FB71044AFB79136000BF0C37DE
S31520003130BD465DF8047B70476000474280B483B08B
S3152000314000AF786039607B689A013B681B070549A8
S315200031501343C1F8843000BF0C37BD465DF8047BAD
S31520003160704700BF0038024080B483B000AF0346EA
S31520003170FB71044AFB79136000BF0C37BD465DF82E
S31520003180047B70476800474280B485B000AFF86082
S31520003190B9607A60FB689A01BB681B061A437B6894
S315200031A01B0705491343C1F8883000BF1437BD46B5
S315200031B05DF8047B704700BF0038024080B483B0BE
S315200031C000AF0346FB71044AFB79136000BF0C373E
S315200031D0BD465DF8047B70477000474280B483B0DB
S315200031E000AF0346FB71044AFB79136000BF0C371E
S315200031F0BD465DF8047B70474C00474280B485B0DD
S3152000320000AF786039600023FB600B4B9B68FB6046
S31520003210FB6823F0EC63FB607A683B681343FA682B
S315200032201343FB60044AFB68936000BF1437BD4616
S315200032305DF8047B704700BF0038024080B485B03B
S3152000324000AF786039600023FB600B4B9B68FB6006
S31520003250FB6823F07843FB607A683B681343FA687F
S315200032601343FB60044AFB68936000BF1437BD46D6
S315200032705DF8047B704700BF0038024080B485B0FB
S3152000328000AF78600023FB60094B9B68FB60FB68FE
S3152000329023F00303FB60FA687B681343FB60044A50
S315200032A0FB68936000BF1437BD465DF8047B70470A
S315200032B00038024080B400AF054B9B68DBB203F0B8
S315200032C00C03DBB21846BD465DF8047B704700BF91
S315200032D00038024080B485B000AF78600023FB60E0
S315200032E0094B9B68FB60FB6823F0F003FB60FA68E0
S315200032F07B681343FB60044AFB68936000BF143766
S31520003300BD465DF8047B70470038024080B485B026
S3152000331000AF78600023FB60094B9B68FB60FB686D
S3152000332023F4E053FB60FA687B681343FB60044A8E
S31520003330FB68936000BF1437BD465DF8047B704779
S315200033400038024080B485B000AF78600023FB606F
S315200033500A4B9B68FB60FB6823F46043FB607B6839
S31520003360DB00FA681343FB60044AFB68936000BFE6
S315200033701437BD465DF8047B704700BF0038024015
S3152000338080B489B000AF78600023BB6100237B61E5
S315200033900023FB6102233B610023FB600223BB6009
S315200033A04A4B9B6803F00C03BB61BB69082B11D009
S315200033B0BB69082B44D8BB69002B03D0BB69042BFF
S315200033C004D03DE07B68424A1A603DE07B68414A72
S315200033D01A6039E03D4B5B689B0D03F00103FB60EF
S315200033E03A4B5B6803F03F03BB60FB68002B0CD0B5
S315200033F0384ABB68B2FBF3F3344A52689209C2F3E7
S31520003400080202FB03F3FB610BE0314ABB68B2FB07
S31520003410F3F32E4A52689209C2F3080202FB03F321
S31520003420FB612A4B5B681B0C03F0030301335B0033
S315200034303B61FA693B69B2FBF3F27B681A6003E0F1
S315200034407B68234A1A6000BF204B9B6803F0F00379
S31520003450BB61BB691B09BB611F4ABB6913441B784F
S31520003460DBB27B617B681A687B69DA407B685A60CD
S31520003470164B9B6803F4E053BB61BB699B0ABB6197
S31520003480154ABB6913441B78DBB27B617B685A689B
S315200034907B69DA407B689A600C4B9B6803F4604337
S315200034A0BB61BB695B0BBB610B4ABB6913441B78D1
S315200034B0DBB27B617B685A687B69DA407B68DA60BD
S315200034C000BF2437BD465DF8047B704700380240B4
S315200034D00024F40000127A003497002080B485B0CE
S315200034E000AF78600023FB607B6803F44073B3F57C
S315200034F0407F11D10F4B9B68FB60FB6823F4F813C8
S31520003500FB607B6823F0704323F44073FA6813430F
S31520003510FB60084AFB689360064B1A6F7B68C3F30F
S315200035200B03044913430B6700BF1437BD465DF8F0
S31520003530047B70470038024080B483B000AF034656
S31520003540FB71044AFB79136000BF0C37BD465DF85A
S31520003550047B70473C0E474280B483B000AF0346DD
S31520003560FB71044AFB79136000BF0C37BD465DF83A
S31520003570047B7047400E474280B483B000AF78602A
S31520003580044A7B68136000BF0C37BD465DF8047B98
S31520003590704700BF5C01474280B485B000AF7860B9
S315200035A00023FB600B4BD3F88C30FB60FB6823F0C9
S315200035B01F03FB607B68013BFA681343FB60054AE7
S315200035C0FB68C2F88C3000BF1437BD465DF8047B1B
S315200035D0704700BF0038024080B485B000AF7860E5
S315200035E00023FB600B4BD3F88C30FB60FB6823F485
S315200035F0F853FB607B68013B1B02FA681343FB60B0
S31520003600044AFB68C2F88C3000BF1437BD465DF80B
S31520003610047B70470038024080B485B000AF7860E4
S315200036200023FB600A4BD3F88C30FB60FB6823F445
S315200036304013FB60FA687B681343FB60044AFB680F
S31520003640C2F88C3000BF1437BD465DF8047B704746
S315200036500038024080B485B000AF78600023FB605C
S315200036600A4BD3F88C30FB60FB6823F44003FB60E5
S31520003670FA687B681343FB60044AFB68C2F88C3007
S3152000368000BF1437BD465DF8047B70470038024002
S3152000369080B485B000AF78600023FB600A4BD3F876
S315200036A08C30FB60FB6823F44033FB60FA687B6850
S315200036B01343FB60044AFB68C2F88C3000BF143702
S315200036C0BD465DF8047B70470038024080B483B065
S315200036D000AF7860044A7B68136000BF0C37BD4694
S315200036E05DF8047B704700BFE011474280B483B089
S315200036F000AF78600B46FB70FB78002B06D00A4B98
S315200037001A6B09497B6813430B6306E0064B1A6B59
S315200037107B68DB43044913400B6300BF0C37BD466F
S315200037205DF8047B704700BF0038024080B483B048
S3152000373000AF78600B46FB70FB78002B06D00A4B57
S315200037405A6B09497B6813434B6306E0064B5A6B59
S315200037507B68DB43044913404B6300BF0C37BD46EF
S315200037605DF8047B704700BF0038024080B483B008
S3152000377000AF78600B46FB70FB78002B06D00A4B17
S315200037809A6B09497B6813438B6306E0064B9A6B59
S315200037907B68DB43044913408B6300BF0C37BD466F
S315200037A05DF8047B704700BF0038024080B483B0C8
S315200037B000AF78600B46FB70FB78002B06D00A4BD7
S315200037C01A6C09497B6813430B6406E0064B1A6C96
S315200037D07B68DB43044913400B6400BF0C37BD46AE
S315200037E05DF8047B704700BF0038024080B483B088
S315200037F000AF78600B46FB70FB78002B06D00A4B97
S315200038005A6C09497B6813434B6406E0064B5A6C95
S315200038107B68DB43044913404B6400BF0C37BD462D
S315200038205DF8047B704700BF0038024080B483B047
S3152000383000AF78600B46FB70FB78002B06D00A4B56
S315200038401A6909497B6813430B6106E0064B1A691E
S315200038507B68DB43044913400B6100BF0C37BD4630
S315200038605DF8047B704700BF0038024080B483B007
S3152000387000AF78600B46FB70FB78002B06D00A4B16
S315200038805A6909497B6813434B6106E0064B5A691E
S315200038907B68DB43044913404B6100BF0C37BD46B0
S315200038A05DF8047B704700BF0038024080B483B0C7
S315200038B000AF78600B46FB70FB78002B06D00A4BD6
S315200038C09A6909497B6813438B6106E0064B9A691E
S315200038D07B68DB43044913408B6100BF0C37BD4630
S315200038E05DF8047B704700BF0038024080B483B087
S315200038F000AF78600B46FB70FB78002B06D00A4B96
S315200039001A6A09497B6813430B6206E0064B1A6A5A
S315200039107B68DB43044913400B6200BF0C37BD466E
S315200039205DF8047B704700BF0038024080B483B046
S3152000393000AF78600B46FB70FB78002B06D00A4B55
S315200039405A6A09497B6813434B6206E0064B5A6A5A
S315200039507B68DB43044913404B6200BF0C37BD46EE
S315200039605DF8047B704700BF0038024080B483B006
S3152000397000AF78600B46FB70FB78002B06D00A4B15
S315200039801A6D09497B6813430B6506E0064B1A6DD1
S315200039907B68DB43044913400B6500BF0C37BD46EB
S315200039A05DF8047B704700BF0038024080B483B0C6
S315200039B000AF78600B46FB70FB78002B06D00A4BD5
S315200039C05A6D09497B6813434B6506E0064B5A6DD1
S315200039D07B68DB43044913404B6500BF0C37BD466B
S315200039E05DF8047B704700BF0038024080B483B086
S315200039F000AF78600B46FB70FB78002B06D00A4B95
S31520003A009A6D09497B6813438B6506E0064B9A6DD0
S31520003A107B68DB43044913408B6500BF0C37BD46EA
S31520003A205DF8047B704700BF0038024080B483B045
S31520003A3000AF78600B46FB70FB78002B06D00A4B54
S31520003A401A6E09497B6813430B6606E0064B1A6E0D
S31520003A507B68DB43044913400B6600BF0C37BD4629
S31520003A605DF8047B704700BF0038024080B483B005
S31520003A7000AF78600B46FB70FB78002B06D00A4B14
S31520003A805A6E09497B6813434B6606E0064B5A6E0D
S31520003A907B68DB43044913404B6600BF0C37BD46A9
S31520003AA05DF8047B704700BF0038024080B483B0C5
S31520003AB000AF03460A46FB711346BB71BB79002B48
S31520003AC008D00C4B1B78DAB20A49FB791343DBB2D8
S31520003AD00B7009E0074B1B78DAB2FB79DB43DBB2CC
S31520003AE004491340DBB20B7000BF0C37BD465DF8AE
S31520003AF0047B70470D38024080B487B000AF034680
S31520003B00FB710023FB6000237B610023FB74FB79A0
S31520003B105B09DBB2FB60FB68012B03D1124B1B68F0
S31520003B207B6109E0FB68022B03D10F4B1B6F7B6186
S31520003B3002E00D4B5B6F7B61FB7903F01F03FB609B
S31520003B407A69FB6822FA03F303F00103002B02D003
S31520003B500123FB7401E00023FB74FB7C18461C3711
S31520003B60BD465DF8047B70470038024080B400AF44
S31520003B70054B5B6F044A43F08073536700BFBD4615
S31520003B805DF8047B704700BF0038024080B485B0E2
S31520003B9000AF0346FB710023FB73094BDA68FB7900
S31520003BA01340002B02D00123FB7301E00023FB739B
S31520003BB0FB7B18461437BD465DF8047B704700BF73
S31520003BC00038024080B483B000AF0346FB71044A3C
S31520003BD0FB79137000BF0C37BD465DF8047B704738
S31520003BE00E38024080B500AF01214FF48040FFF728
S31520003BF09DFE00214FF48040FFF798FE00BF80BD58
S31520003C0080B483B000AF0346FB71044AFB7913608E
S31520003C1000BF0C37BD465DF8047B70470038014075
S31520003C2080B483B000AF0346FB71044AFB7913606E
S31520003C3000BF0C37BD465DF8047B70472000274245
S31520003C4080B485B000AF03460A46FB711346BB71AC
S31520003C500023FB60BB7903F003039B000F2202FACB
S31520003C6003F3FB60164ABB799B08DBB2023352F89A
S31520003C702320FB68DB431248B9798908C9B21A4068
S31520003C808B1C40F823200E4ABB799B08DBB20233FB
S31520003C9052F82320F979BB7903F003039B0001FA3C
S31520003CA003F30748B9798908C9B21A438B1C40F82F
S31520003CB0232000BF1437BD465DF8047B704700BF44
S31520003CC00038014080B483B000AF7860044A7B6836
S31520003CD0136000BF0C37BD465DF8047B704700BFFC
S31520003CE0DC00274280B483B000AF0346FB71044A50
S31520003CF0FB79136000BF0C37BD465DF8047B704727
S31520003D000004274280B483B000AF0023FB71094B27
S31520003D101B6A03F48073002B02D00123FB7101E0A0
S31520003D200023FB71FB7918460C37BD465DF8047BF2
S31520003D30704700BF0038014080B582B000AF786080
S31520003D407B68604A934208D101210120FFF7EEFDEE
S31520003D5000210120FFF7EAFDAFE07B68B3F1804F39
S31520003D6008D101210120FFF7C1FD00210120FFF725
S31520003D70BDFDA2E07B68544A934208D1012102206E
S31520003D80FFF7B4FD00210220FFF7B0FD95E07B6828
S31520003D904E4A934208D101210420FFF7A7FD0021B6
S31520003DA00420FFF7A3FD88E07B68494A934208D1A7
S31520003DB001210820FFF79AFD00210820FFF796FD34
S31520003DC07BE07B68434A934208D101211020FFF70C
S31520003DD08DFD00211020FFF789FD6EE07B683E4AAD
S31520003DE0934208D101212020FFF780FD00212020C9
S31520003DF0FFF77CFD61E07B68384A934208D10121B8
S31520003E000220FFF793FD00210220FFF78FFD54E0EB
S31520003E107B68334A93420AD101214FF48030FFF761
S31520003E2085FD00214FF48030FFF780FD45E07B685B
S31520003E302C4A93420AD101214FF40030FFF776FD38
S31520003E4000214FF40030FFF771FD36E07B68264AEB
S31520003E5093420AD101214FF48020FFF767FD00210C
S31520003E604FF48020FFF762FD27E07B681F4A9342CC
S31520003E7008D101214020FFF739FD00214020FFF71E
S31520003E8035FD1AE07B681A4A934208D10121802029
S31520003E90FFF72CFD00218020FFF728FD0DE07B6831
S31520003EA0144A934209D101214FF48070FFF71EFD79
S31520003EB000214FF48070FFF719FD00BF0837BD467B
S31520003EC080BD00BF00000140000400400008004003
S31520003ED0000C004000100040001400400004014087
S31520003EE000400140004401400048014000180040C5
S31520003EF0001C00400020004080B485B000AF7860F0
S31520003F0039600023FB817B681B88FB817B68294AFB
S31520003F10934213D07B68284A93420FD07B68B3F133
S31520003F20804F0BD07B68254A934207D07B68244A72
S31520003F30934203D07B68234A934208D1FB8923F01E
S31520003F407003FB813B685A88FB891343FB817B689E
S31520003F501D4A93420CD07B681C4A934208D0FB89A9
S31520003F6023F44073FB813B681A89FB891343FB8149
S31520003F707B68FA891A803B685A687B68DA623B68F4
S31520003F801A887B681A857B680A4A934203D07B6825
S31520003F90094A934204D13B689B7A1A467B681A8663
S31520003FA07B6801229A8200BF1437BD465DF8047BE8
S31520003FB0704700BF0000014000040140000400409B
S31520003FC000080040000C0040001000400014004093
S31520003FD080B483B000AF78607B684FF0FF325A60C0
S31520003FE07B6800221A807B6800221A817B68002267
S31520003FF05A807B6800229A7200BF0C37BD465DF856
S31520004000047B704780B483B000AF78600B467B801A
S3152000401013463B807B687A881A857B683A889A8221
S3152000402000BF0C37BD465DF8047B704780B485B071
S3152000403000AF78600B467B800023FB817B681B8862
S31520004040FB81FB8923F07003FB81FA897B8813436C
S31520004050FB817B68FA891A8000BF1437BD465DF85C
S31520004060047B704780B483B000AF786039607B688A
S315200040703A685A6200BF0C37BD465DF8047B70472C
S3152000408080B483B000AF786039607B683A68DA62C2
S3152000409000BF0C37BD465DF8047B704780B483B003
S315200040A000AF78607B685B6A18460C37BD465DF8C2
S315200040B0047B704780B483B000AF78607B681B8D2B
S315200040C09BB218460C37BD465DF8047B704780B41A
S315200040D083B000AF78600B46FB70FB78002B08D0CE
S315200040E07B681B889BB243F002039AB27B681A80D6
S315200040F007E07B681B889BB223F002039AB27B6899
S315200041001A8000BF0C37BD465DF8047B704780B42B
S3152000411083B000AF78600B467B807B88002B08D06D
S315200041207B681B889BB243F004039AB27B681A8093
S3152000413007E07B681B889BB223F004039AB27B6856
S315200041401A8000BF0C37BD465DF8047B704780B4EB
S3152000415083B000AF78600B46FB70FB78002B08D04D
S315200041607B681B889BB243F080039AB27B681A80D7
S3152000417007E07B681B889BB223F080039AB27B689A
S315200041801A8000BF0C37BD465DF8047B704780B4AB
S3152000419083B000AF78600B467B807B681B889BB220
S315200041A023F008039AB27B681A807B681B889AB230
S315200041B07B8813439AB27B681A8000BF0C37BD46B2
S315200041C05DF8047B704780B483B000AF78600B46FF
S315200041D07B807B681B889BB223F440739AB27B68F2
S315200041E01A807B681B889AB27B8813439AB27B68B5
S315200041F01A8000BF0C37BD465DF8047B704780B43B
S3152000420083B000AF78600B46FB70FB78002B08D09C
S315200042107B681B889BB243F001039AB27B681A80A5
S3152000422007E07B681B889BB223F001039AB27B6868
S315200042301A8000BF0C37BD465DF8047B704780B4FA
S3152000424085B000AF7860396000237B810023FB8135
S315200042500023BB817B681B8C9BB223F001039AB29F
S315200042607B681A847B681B8CFB817B689B88BB815F
S315200042707B681B8B7B817B8923F070037B817B8909
S3152000428023F003037B813B681A887B8913437B8158
S31520004290FB8923F00203FB813B689A89FB89134340
S315200042A0FB813B685A88FB891343FB817B681F4A45
S315200042B0934203D07B681E4A934223D1FB8923F085
S315200042C00803FB813B68DA89FB891343FB81FB8961
S315200042D023F00403FB813B689A88FB891343FB8107
S315200042E0BB8923F48073BB81BB8923F40073BB8114
S315200042F03B681A8ABB891343BB813B685A8ABB89B0
S315200043001343BB817B68BA899A807B687A891A8332
S315200043103B689A687B685A637B68FA891A8400BF6F
S315200043201437BD465DF8047B704700BF000001408E
S315200043300004014080B485B000AF78603960002366
S315200043407B810023FB810023BB817B681B8C9BB276
S3152000435023F010039AB27B681A847B681B8CFB813E
S315200043607B689B88BB817B681B8B7B817B8923F445
S31520004370E0437B817B8923F440737B813B681B88E8
S315200043801B029AB27B8913437B81FB8923F020038E
S31520004390FB813B689B891B019AB2FB891343FB81F6
S315200043A03B685B881B019AB2FB891343FB817B68C0
S315200043B0224A934203D07B68214A93422BD1FB8920
S315200043C023F08003FB813B68DB891B019AB2FB89C2
S315200043D01343FB81FB8923F04003FB813B689B88C9
S315200043E01B019AB2FB891343FB81BB8923F48063AB
S315200043F0BB81BB8923F40063BB813B681B8A9B007E
S315200044009AB2BB891343BB813B685B8A9B009AB2F5
S31520004410BB891343BB817B68BA899A807B687A897A
S315200044201A833B689A687B689A637B68FA891A8440
S3152000443000BF1437BD465DF8047B7047000001407D
S315200044400004014080B485B000AF78603960002355
S315200044507B810023FB810023BB817B681B8C9BB265
S3152000446023F480739AB27B681A847B681B8CFB8149
S315200044707B689B88BB817B689B8B7B817B8923F0B8
S3152000448070037B817B8923F003037B813B681A8839
S315200044907B8913437B81FB8923F40073FB813B6873
S315200044A09B891B029AB2FB891343FB813B685B887D
S315200044B01B029AB2FB891343FB817B68224A9342F3
S315200044C003D07B68214A93422BD1FB8923F40063D6
S315200044D0FB813B68DB891B029AB2FB891343FB8174
S315200044E0FB8923F48063FB813B689B881B029AB27D
S315200044F0FB891343FB81BB8923F48053BB81BB8992
S3152000450023F40053BB813B681B8A1B019AB2BB89EB
S315200045101343BB813B685B8A1B019AB2BB89134359
S31520004520BB817B68BA899A807B687A899A833B6843
S315200045309A687B68DA637B68FA891A8400BF143725
S31520004540BD465DF8047B7047000001400004014031
S3152000455080B485B000AF786039600023BB8100232A
S315200045607B810023FB817B681B8C9BB223F48053C9
S315200045709AB27B681A847B681B8C7B817B689B88BC
S31520004580FB817B689B8BBB81BB8923F4E043BB818A
S31520004590BB8923F44073BB813B681B881B029AB2FC
S315200045A0BB891343BB817B8923F400537B813B6802
S315200045B09B891B039AB27B8913437B813B685B886B
S315200045C01B039AB27B8913437B817B68124A9342F1
S315200045D003D07B68114A93420AD1FB8923F4804396
S315200045E0FB813B681B8A9B019AB2FB891343FB81A3
S315200045F07B68FA899A807B68BA899A833B689A682D
S315200046007B681A647B687A891A8400BF1437BD4692
S315200046105DF8047B704700BF0000014000040140A4
S3152000462080B483B000AF78607B6800221A807B68F4
S3152000463000225A807B6800229A807B6800229A603A
S315200046407B6800229A817B680022DA817B680022BF
S315200046501A827B6800225A8200BF0C37BD465DF85D
S31520004660047B704780B485B000AF78600B467B80B2
S3152000467013463B800023FB6000237B817B68FB6025
S31520004680FB681833FB607B88012202FA03F37B81E7
S315200046907B681B8C9AB27B89DB439BB213409AB210
S315200046A07B681A847B88002B02D07B88082B14D148
S315200046B07B885B089BB21A46FB681344FB60FB6849
S315200046C01968FA684FF68F730B401360FB681968F8
S315200046D03A88FB680A431A6019E07B88043B9BB240
S315200046E05B089BB21A46FB681344FB60FB6819689B
S315200046F0FA6848F6FF730B401360FB681A683B881C
S315200047001B029BB21946FB680A431A6000BF00BF12
S315200047101437BD465DF8047B704780B483B000AF84
S31520004720786039607B683A685A6300BF0C37BD46AB
S315200047305DF8047B704780B483B000AF7860396041
S315200047407B683A689A6300BF0C37BD465DF8047BE8
S31520004750704780B483B000AF786039607B683A6870
S31520004760DA6300BF0C37BD465DF8047B704780B422
S3152000477083B000AF786039607B683A681A6400BFFE
S315200047800C37BD465DF8047B704780B485B000AF1A
S3152000479078600B467B800023FB817B681B8BFB812B
S315200047A0FB8923F07003FB81FA897B881343FB8105
S315200047B07B68FA891A8300BF1437BD465DF8047BEF
S315200047C0704780B485B000AF78600B467B800023AD
S315200047D0FB817B681B8BFB81FB8923F4E043FB81F8
S315200047E07B881B029AB2FB891343FB817B68FA897B
S315200047F01A8300BF1437BD465DF8047B704780B42A
S3152000480085B000AF78600B467B800023FB817B68F8
S315200048109B8BFB81FB8923F07003FB81FA897B88C4
S315200048201343FB817B68FA899A8300BF1437BD4600
S315200048305DF8047B704780B485B000AF78600B4686
S315200048407B800023FB817B689B8BFB81FB8923F488
S31520004850E043FB817B881B029AB2FB891343FB81D1
S315200048607B68FA899A8300BF1437BD465DF8047BBE
S31520004870704780B485B000AF78600B467B800023FC
S31520004880FB817B681B8BFB81FB8923F00803FB8163
S31520004890FA897B881343FB817B68FA891A8300BFD8
S315200048A01437BD465DF8047B704780B485B000AFF1
S315200048B078600B467B800023FB817B681B8BFB810A
S315200048C0FB8923F40063FB817B881B029AB2FB8958
S315200048D01343FB817B68FA891A8300BF1437BD46D0
S315200048E05DF8047B704780B485B000AF78600B46D6
S315200048F07B800023FB817B689B8BFB81FB8923F0DC
S315200049000803FB81FA897B881343FB817B68FA893C
S315200049109A8300BF1437BD465DF8047B704780B488
S3152000492085B000AF78600B467B800023FB817B68D7
S315200049309B8BFB81FB8923F40063FB817B881B0215
S315200049409AB2FB891343FB817B68FA899A8300BF5D
S315200049501437BD465DF8047B704780B485B000AF40
S3152000496078600B467B800023FB817B681B8BFB8159
S31520004970FB8923F00403FB81FA897B881343FB819F
S315200049807B68FA891A8300BF1437BD465DF8047B1D
S31520004990704780B485B000AF78600B467B800023DB
S315200049A0FB817B681B8BFB81FB8923F48063FB8166
S315200049B07B881B029AB2FB891343FB817B68FA89A9
S315200049C01A8300BF1437BD465DF8047B704780B458
S315200049D085B000AF78600B467B800023FB817B6827
S315200049E09B8BFB81FB8923F00403FB81FA897B885F
S315200049F01343FB817B68FA899A8300BF1437BD462F
S31520004A005DF8047B704780B485B000AF78600B46B4
S31520004A107B800023FB817B689B8BFB81FB8923F4B6
S31520004A208063FB817B881B029AB2FB891343FB813F
S31520004A307B68FA899A8300BF1437BD465DF8047BEC
S31520004A40704780B485B000AF78600B467B8000232A
S31520004A50FB817B681B8BFB81FB8923F08003FB8119
S31520004A60FA897B881343FB817B68FA891A8300BF06
S31520004A701437BD465DF8047B704780B485B000AF1F
S31520004A8078600B467B800023FB817B681B8BFB8138
S31520004A90FB89C3F30E03FB817B881B029AB2FB8939
S31520004AA01343FB817B68FA891A8300BF1437BD46FE
S31520004AB05DF8047B704780B485B000AF78600B4604
S31520004AC07B800023FB817B689B8BFB81FB8923F00A
S31520004AD08003FB81FA897B881343FB817B68FA89F3
S31520004AE09A8300BF1437BD465DF8047B704780B4B7
S31520004AF085B000AF78600B467B800023FB817B6806
S31520004B009B8BFB81FB89C3F30E03FB817B881B02F6
S31520004B109AB2FB891343FB817B68FA899A8300BF8B
S31520004B201437BD465DF8047B704780B485B000AF6E
S31520004B3078600B467B800023FB817B681B8CFB8186
S31520004B40FB8923F00203FB81FA897B881343FB81CF
S31520004B507B68FA891A8400BF1437BD465DF8047B4A
S31520004B60704780B485B000AF78600B467B80002309
S31520004B70FB817B681B8CFB81FB8923F00803FB816F
S31520004B80FA897B881343FB817B68FA891A8400BFE4
S31520004B901437BD465DF8047B704780B485B000AFFE
S31520004BA078600B467B800023FB817B681B8CFB8116
S31520004BB0FB8923F02003FB817B881B019AB2FB89AA
S31520004BC01343FB817B68FA891A8400BF1437BD46DC
S31520004BD05DF8047B704780B485B000AF78600B46E3
S31520004BE07B800023FB817B681B8CFB81FB8923F068
S31520004BF08003FB817B881B019AB2FB891343FB81CF
S31520004C007B68FA891A8400BF1437BD465DF8047B99
S31520004C10704780B485B000AF78600B467B80002358
S31520004C20FB817B681B8CFB81FB8923F40073FB8152
S31520004C307B881B029AB2FB891343FB817B68FA8926
S31520004C401A8400BF1437BD465DF8047B704780B4D4
S31520004C5085B000AF78600B467B800023FB817B68A4
S31520004C601B8CFB81FB8923F40063FB817B881B0261
S31520004C709AB2FB891343FB817B68FA891A8400BFA9
S31520004C801437BD465DF8047B704780B485B000AF0D
S31520004C9078600B467B800023FB817B681B8CFB8125
S31520004CA0FB8923F40053FB817B881B039AB2FB8983
S31520004CB01343FB817B68FA891A8400BF1437BD46EB
S31520004CC05DF8047B704780B485B000AF78600B46F2
S31520004CD07B8013463B800023FB817B88012202FADE
S31520004CE003F3FB817B681B8C9AB2FB89DB439BB267
S31520004CF013409AB27B681A847B681B8C9AB23988D7
S31520004D007B8801FA03F39BB213439AB27B681A8419
S31520004D1000BF1437BD465DF8047B704780B485B06C
S31520004D2000AF78600B467B8013463B800023FB81D7
S31520004D307B88042202FA03F3FB817B681B8C9AB2E0
S31520004D40FB89DB439BB213409AB27B681A847B684B
S31520004D501B8C9AB239887B8801FA03F39BB21343E2
S31520004D609AB27B681A8400BF1437BD465DF8047B6F
S31520004D70704780B582B000AF786039603B681B8889
S31520004D80002B0FD13B6859883B689A883B681B8962
S31520004D90786800F0B7FC3B68DB881946786800F035
S31520004DA0E1F836E03B681B88042B0FD13B68598815
S31520004DB03B689A883B681B89786800F0E6FC3B686C
S31520004DC0DB881946786800F0E9F822E03B681B8802
S31520004DD0082B0FD13B6859883B689A883B681B890A
S31520004DE0786800F01FFD3B68DB881946786800F07C
S31520004DF0F3F80EE03B6859883B689A883B681B8924
S31520004E00786800F057FD3B68DB881946786800F023
S31520004E10FFF800BF0837BD4680BD80B483B000AF21
S31520004E2078607B6800221A807B6800225A807B6823
S31520004E3001229A807B680022DA807B6800221A8110
S31520004E4000BF0C37BD465DF8047B704780B584B043
S31520004E5000AF786039600023FB810123BB813B686A
S31520004E605B88002B02D10223FB8101E00023FB811A
S31520004E703B689B88012B02D10223BB8101E00123E1
S31520004E80BB813B681B88002B1CD13B6859883B683B
S31520004E909A883B681B89786800F034FC3B68DB887D
S31520004EA01946786800F05EF83B681B89BA89F9894B
S31520004EB0786800F06AFC3B68DB881946786800F061
S31520004EC06DF81BE03B6859883B689A883B681B89CC
S31520004ED0786800F05AFC3B68DB881946786800F051
S31520004EE05DF83B681B89BA89F989786800F00AFC65
S31520004EF03B68DB881946786800F034F800BF103725
S31520004F00BD4680BD80B483B000AF78607B685B6BA4
S31520004F1018460C37BD465DF8047B704780B483B0D5
S31520004F2000AF78607B689B6B18460C37BD465DF8F2
S31520004F30047B704780B483B000AF78607B68DB6BFE
S31520004F4018460C37BD465DF8047B704780B483B0A5
S31520004F5000AF78607B681B6C18460C37BD465DF841
S31520004F60047B704780B483B000AF78600B467B80AB
S31520004F707B681B8B9BB223F00C039AB27B681A8347
S31520004F807B681B8B9AB27B8813439AB27B681A8301
S31520004F9000BF0C37BD465DF8047B704780B483B0F4
S31520004FA000AF78600B467B807B681B8B9BB223F41B
S31520004FB040639AB27B681A837B681B8B9AB27B8884
S31520004FC01B029BB213439AB27B681A8300BF0C372D
S31520004FD0BD465DF8047B704780B483B000AF78602F
S31520004FE00B467B807B689B8B9BB223F00C039AB28B
S31520004FF07B689A837B689B8B9AB27B8813439AB291
S315200050007B689A8300BF0C37BD465DF8047B7047EA
S3152000501080B483B000AF78600B467B807B689B8B27
S315200050209BB223F440639AB27B689A837B689B8BFE
S315200050309AB27B881B029BB213439AB27B689A83EF
S3152000504000BF0C37BD465DF8047B704780B483B043
S3152000505000AF786039603B681A883B685B881343E9
S315200050609AB23B689B8813439AB23B68DB8813430A
S315200050709AB23B681B8913439AB23B685B891343F8
S315200050809AB23B689B8913439AB27B68A3F8442063
S3152000509000BF0C37BD465DF8047B704780B483B0F3
S315200050A000AF78607B6800221A807B6800225A80D5
S315200050B07B6800229A807B680022DA807B68002247
S315200050C01A817B6800225A817B6800229A8100BF60
S315200050D00C37BD465DF8047B704780B483B000AFC3
S315200050E078600B46FB70FB78002B0CD07B68B3F8FE
S315200050F044309BB26FEA43436FEA53439AB27B68CC
S31520005100A3F8442009E07B68B3F844309BB2C3F38C
S315200051100E039AB27B68A3F8442000BF0C37BD4625
S315200051205DF8047B704780B483B000AF78600B468F
S31520005130FB70FB78002B08D07B689B889BB243F0E2
S3152000514004039AB27B689A8007E07B689B889BB2AF
S3152000515023F004039AB27B689A8000BF0C37BD46C1
S315200051605DF8047B704780B483B000AF78600B464F
S31520005170FB70FB78002B08D07B689B889BB243F0A2
S3152000518001039AB27B689A8007E07B689B889BB272
S3152000519023F001039AB27B689A8000BF0C37BD4684
S315200051A05DF8047B704780B483B000AF78600B460F
S315200051B07B8013467B707B78002B08D07B689B898D
S315200051C09AB27B8813439AB27B689A8109E07B68FE
S315200051D09B899AB27B88DB439BB213409AB27B6849
S315200051E09A8100BF0C37BD465DF8047B704780B4BA
S315200051F083B000AF78600B467B807B687A889A8282
S3152000520000BF0C37BD465DF8047B704780B485B07F
S3152000521000AF78600B467B800023FB737B681B8A7C
S315200052209AB27B8813409BB2002B02D00123FB73DA
S3152000523001E00023FB73FB7B18461437BD465DF85F
S31520005240047B704780B483B000AF78600B467B80C8
S315200052507B88DB439AB27B681A8200BF0C37BD4637
S315200052605DF8047B704780B485B000AF78600B464C
S315200052707B800023FB730023BB8100237B817B681B
S315200052801B8A9AB27B881340BB817B689B899AB222
S315200052907B8813407B81BB89002B05D07B89002B23
S315200052A002D00123FB7301E00023FB73FB7B18462E
S315200052B01437BD465DF8047B704780B483B000AFD9
S315200052C078600B467B807B88DB439AB27B681A82A8
S315200052D000BF0C37BD465DF8047B704780B483B0B1
S315200052E000AF78600B467B8013463B807A883B88EC
S315200052F013439AB27B68A3F8482000BF0C37BD46FB
S315200053005DF8047B704780B483B000AF78600B46AD
S315200053107B8013467B707B78002B08D07B689B892B
S315200053209AB27B8813439AB27B689A8109E07B689C
S315200053309B899AB27B88DB439BB213409AB27B68E7
S315200053409A8100BF0C37BD465DF8047B704780B458
S3152000535083B000AF78600B46FB70FB78002B08D03B
S315200053607B689B889BB243F008039AB27B689A803D
S3152000537007E07B689B889BB223F008039AB27B6880
S315200053809A8000BF0C37BD465DF8047B704780B419
S3152000539083B000AF78607B681B899BB223F007033C
S315200053A09AB27B681A8100BF0C37BD465DF8047B34
S315200053B0704780B582B000AF78600B467B807B88D3
S315200053C01946786800F088F87B681B899BB243F001
S315200053D007039AB27B681A8100BF0837BD4680BD95
S315200053E080B584B000AFF860084611461A460346D9
S315200053F07B810B463B811346FB807B89602B06D144
S31520005400FB8839890122F86800F0BFF905E0FB889E
S3152000541039890122F86800F075F97B891946F86800
S3152000542000F05AF8FB681B899BB243F007039AB237
S31520005430FB681A8100BF1037BD4680BD80B586B097
S3152000544000AFF860084611461A4603467B810B4694
S315200054503B811346FB800023FB82FB883A897989AE
S31520005460F86800F0A9F8FB681B89FB82FB8A23F009
S315200054700703FB82FB8A43F00703FB82FB8A23F0A8
S315200054807003FB82FB8A43F07003FB82FB68FA8A77
S315200054901A8100BF1837BD4680BD80B584B000AFE5
S315200054A0F860084611461A4603467B810B463B8127
S315200054B01346FB80FB883A897989F86800F07CF8E6
S315200054C0FB681B899BB243F480439AB2FB681A811E
S315200054D000BF1037BD4680BD80B485B000AF786070
S315200054E00B467B800023FB817B681B89FB81FB8924
S315200054F023F07003FB81FA897B881343FB817B6849
